S012000050726F6772616D5F76312E7372656334
S11300000C943C000C9459000C9459000C94590025
S11300100C9459000C9459000C9459000C945900F8
S11300200C9459000C94EE080C9459000C9459004B
S11300300C9459000C94EA050C9459000C94590042
S11300400C9459000C9459000C9459000C945900C8
S11300500C9459000C9459000C9459000C945900B8
S11300600C9459000C94590000000000000A00117F
S11300700A0400000000C80911241FBECFEFD8E015
S1130080DEBFCDBF11E0A0E0B1E0E0E9F1E202C0E3
S113009005900D92A235B107D9F721E0A2E5B1E0B0
S11300A001C01D92A63DB207E1F70E9456020C94CE
S11300B0BB100C94000060E088E690E00E94F80613
S11300C061E089E690E00E94F80662E08AE690E04A
S11300D00E94F80663E08BE690E00E94F80664E074
S11300E08CE690E00E94F80665E08DE690E00E94C0
S11300F0F80666E08EE690E00E94F8060C946B0722
S1130100CF92DF92EF92FF920F931F93CF93DF93DF
S1130110CDB7DEB72A970FB6F894DEBF0FBECDBFBA
S11301208C01D12C8AE0C82E95E6E92EF12CE4E16D
S1130130F1E0DE0111968C2D01900D928A95E1F784
S1130140F801819191918F01B7010E94E00E81E045
S113015090E08C0F9D1F680F791FFB0180810E9426
S1130160FB06D394F5E0DF12E2CF2A960FB6F8949B
S1130170DEBF0FBECDBFDF91CF911F910F91FF90D6
S1130180EF90DF90CF9008954F925F926F927F929D
S11301908F929F92AF92BF92CF92DF92EF92FF9293
S11301A00F931F93CF93DF93CDB7DEB72A970FB684
S11301B0F894DEBF0FBECDBF80ED97E00E94C40966
S11301C00E945B000E946E090091B5011091B60176
S11301D02091B7013091B801012B022B032B11F1AF
S11301E00091B9011091BA012091BB013091BC0179
S11301F06B017C01C01AD10AE20AF30A0091BD0125
S11302001091BE012091BF013091C0010C0D1D1D44
S11302102E1D3F1D0093BD011093BE012093BF010D
S11302203093C0016093B9017093BA018093BB010C
S11302309093BC0180E20E94EB0881111DC00E94D2
S113024030038C010E946B07B801882777FD8095E5
S1130250982F0E94CF078BE391E00E947A0761E018
S113026080E00E94F2078EE391E00E947A0784E620
S113027090E00E943609DECF0CEE1FEF0832110524
S113028028F068ED7FEF88E290E004C068E270E057
S113029088ED9FEF0E94A80881E00E94880984E10C
S11302A090E00E9436090F5F1F4F0C33110531F7A0
S11302B060E070E080E090E00E94A80880E20E9484
S11302C0EB0881111AC061E0CE0101960E948E09EB
S11302D08C010E946B07B80180E090E00E94CF0778
S11302E061E080E00E94F207CE0101960E94800046
S11302F084E690E00E943609E1CF80E20E94D708AC
S11303001092B5011092B6011092B7011092B80183
S11303101092BD011092BE011092BF011092C00153
S11303200E946B0781E090E0A0E0B0E08093B5010B
S11303309093B601A093B701B093B8016091BD0149
S11303407091BE018091BF019091C00120EC37E211
S113035049E050E00E94160F6AE0C62ED12CE12C31
S1130360F12CCA01B901A70196010E94160F0E943F
S1130370CF076091BD017091BE018091BF01909142
S1130380C00120E63AEE40E050E00E94160FCA0198
S1130390B901A70196010E94160F0E94CF078AE3B4
S11303A00E94FB066091BD017091BE018091BF0166
S11303B09091C001E8EE4E2EE3E05E2E612C712C8C
S11303C0A30192010E94160FFCE38F2E912CA12C05
S11303D0B12CCA01B901A50194010E94160FA7010D
S11303E096010E94160FCA01B9010E94CF076091BD
S11303F0BD017091BE018091BF019091C001A30124
S113040092010E94160FCA01B901A50194010E942C
S1130410160FA70196010E94160F772788279927A0
S11304200E94CF078EE20E94FB066091BD0170918D
S1130430BE018091BF019091C00124E630E040E00C
S113044050E00E94160FCA01B901A70196010E944B
S1130450160F0E94CF076091BD017091BE0180917B
S1130460BF019091C001A70196010E94160FCA0115
S1130470B901A70196010E94160F0E94CF072A9680
S11304800FB6F894DEBF0FBECDBFDF91CF911F91A1
S11304900F91FF90EF90DF90CF90BF90AF909F901F
S11304A08F907F906F905F904F90089586E980932E
S11304B0C50184E68093C6010E94C400FFCFECE727
S11304C0F0E080818F7D80830895811103C00E94B4
S11304D05F02089580917C00806280937C0008957F
S11304E080917C0085FB882780F908950E94700222
S11304F0882321F08091790090E00895809178001C
S11305009091790008958032A0F497E890937A004E
S113051090917C00662311F0906C02C09F779064E8
S1130520907E982B90937C0080917A0080648093D5
S11305307A000895A0E0B0E0E0EAF2E00C94610FE4
S1130540EB0160E00E94830280917A0086FDFCCF7B
S11305508E01C12CD12C760180917A008064809325
S11305607A0080917A0086FDFCCF0E947602C80E44
S1130570D91EE11CF11C015011090115110561F787
S1130580CE0196958795C034D10538F48C0D9D1D08
S1130590BE010E94E00ECB010EC0A7019601280FF8
S11305A0391F411D511DCA01B9019E0140E050E0AF
S11305B00E94F40EC901CDB7DEB7E8E00C947D0FBC
S11305C0CF92DF92EF92FF92A0910001B0910101CE
S11305D09C010E94350F6B017C010E9470028823EC
S11305E059F0C701B60161587F4F8F4F9F4F2FEFCE
S11305F030E040E050E00AC0C701B60161507E4FD0
S11306008F4F9F4F2FEF33E040E050E00E94F40EF5
S1130610C901FF90EF90DF90CF9008950E949A0255
S11306200E94E00208951F93CF93DF930E9470020B
S1130630182F0E945F026AE070E086E00E940E03B9
S1130640EC01812F0E946502CE01880F991F8C0F47
S11306509D1F019696958795DF91CF911F910895DF
S11306600E941303089590915701E0915201F09173
S11306705301992311F0849101C080812FEB280F3D
S11306802A3110F4805E0895803249F49F012F5F6F
S11306903F4F3093530120935201EF2B31F70895CC
S11306A01F93CF93DF930E943303C0E0D0E01AE09E
S11306B090ED980F9A30B8F49E01129FE001139FB9
S11306C0D00D1124C80FD11D87FDDA95E0978091D4
S11306D052019091530101969093530180935201DA
S11306E00E943303E5CFCE01DF91CF911F9108958E
S11306F010926F0083E28093800081E180938100F7
S11307001092820080E197E29093890080938800A0
S113071010928B0010928A00229A789408958F92F6
S11307209F92AF92BF92DF92EF92FF920F931F932B
S1130730CF93DF935C018B01D42E809154018111FE
S113074005C081E0809354010E94780310920B014C
S1130750B7FE05C0E894B7F82AE0F22E02C0FF24E1
S1130760F394E09081002E2D287FE22E48ECF49E35
S1130770C00111248A159B05E0F4E50151E1A51699
S113078057E2B50610F0C0E1D7E2BE017695679551
S113079080E090E06058794687469F4F4E01A12C37
S11307A0B12CA50194010E94F40E59018E2D816093
S11307B024C0C8E2FC9EC02D1124D0E0CA15DB057C
S11307C008F4E501BE01769567959E0140E050E08E
S11307D08AE0F81207C080E090E0605E73448144D0
S11307E09F4F06C080E090E060537D4E8C4E9F4F3B
S11307F00E94F40E59018E2D8260882E2AE0F21296
S113080007C0CE0105966AE070E00E94E00EEB019D
S1130810C83E43E0D40759F09801DE010E94350F29
S113082028EE33E040E050E00E94160F8901109258
S11308306F0080928100B0928900A092880020917C
S11308408800309189004D2D403108F04FE080E15F
S113085090E0841B9109A90102C0569547958A9599
S1130860E2F750938B0040938A0010935A0100934F
S1130870590186B38FEF86BB81E080936F00DF91CF
S1130880CF911F910F91FF90EF90DF90BF90AF90A9
S11308909F908F900895CF93DF93EB018F3F11F0DA
S11308A0411105C040E0BE0188EE93E043C08131B0
S11308B030F050EF580F503618F05FE501C050E0AB
S11308C0852F6CE00E94D40E682F74EF760390019C
S11308D01124250F311D2C30310540F4F901EE0FA0
S11308E0FF1FE25EFE4F2081318102C020E030E034
S11308F0873081F0082E02C0220F331F0A94E2F7DA
S1130900823028F0C90105966AE070E00CC0C90184
S113091090580CC0C90136E0880F991F3A95E1F749
S1130920029665E070E00E94E00ECB01403108F0D1
S11309304FE0BE010E948F03DF91CF910895A2E0A2
S1130940B0E0E5EAF4E00C94590F90900A0180912C
S11309505601882321F060915501611117C0772455
S11309607394B0ECAB2EBDE5BB2E1AE0612E04E00F
S1130970802E80EDC82E87E0D82E94E0E92EF12C4D
S113098004EF11E02FE0422E512C15C070E040E03E
S113099088EE93E00E948F031092550117C18636AA
S11309A0D4F5813609F4A9C07CF58C3309F460C010
S11309B08E3381F493940E94330320915201309139
S11309C053012F5F3F4F30935301209352018536DB
S11309D031F752C0813209F08BC080920A01D09263
S11309E00901C0920801F0920701E09206011093F8
S11309F005010093040150920301409202011092F8
S1130A005601A4E09A2ED7CF8336A1F10CF478C016
S1130A1010E082E077C08D36C1F194F4873691F10D
S1130A2074F18C3609F064C00E945003BC019093A9
S1130A30070180930601809108019091090151C03A
S1130A408237C9F14CF48F3609F052C00E9450032A
S1130A50982E80930A01AFCF843781F1863709F04D
S1130A6047C00E9450039093030180930201A3CFD7
S1130A709A94A1CF10E020C010E084E043C010E0BD
S1130A8085E040C010E087E03DC00E9433038C360F
S1130A9019F41092560104C0709256011092550137
S1130AA020915201309153012F5F3F4F30935301F6
S1130AB02093520180CF11E080E024C00E945003B3
S1130AC0BC01C5010E94E00E669EC001679E900DA8
S1130AD0112490930901809308016091060170919B
S1130AE007010E94E00E709305016093040163CF37
S1130AF0109253011092520169C010E089E002C0C3
S1130B0010E08BE0082F9CE0999E000D11240E94B8
S1130B103303982F977F933261F4209152013091DF
S1130B2053012F5F3F4F30935301209352010F5FC6
S1130B30EECF8D3271F420915201309153012F5F29
S1130B403F4F309353012093520101500E943303CD
S1130B50F0CF60910401709105018153883050F405
S1130B60E0900801F09009010E945003BC01C70104
S1130B700E94E00E7B01F694E79469837A830E94D5
S1130B80330369817A818E3269F420915201309164
S1130B9053012F5F3F4F30935301209352016E0D49
S1130BA07F1DE9CF80915601882339F09B0136954A
S1130BB0279520935501621B71094091020111236D
S1130BC011F08FEF01C0802F0E944B042296E0E1C8
S1130BD00C94750F1F920F920FB60F9211242F933E
S1130BE03F934F935F936F937F938F939F93AF93B1
S1130BF0BF93EF93FF938091590190915A019C0107
S1130C002150310930935A0120935901892B11F550
S1130C1010926F00789480918100887F8160809326
S1130C20810080E197E2909389008093880010927C
S1130C308B0010928A0081E080930B018091520115
S1130C4090915301892B31F080915801811102C098
S1130C500E949F04FF91EF91BF91AF919F918F915B
S1130C607F916F915F914F913F912F910F900FBEA4
S1130C700F901F90189581E090E06F9364E06A955F
S1130C80F1F76F910197C9F708950F931F93CF93CD
S1130C90DF931AB157985A98289AC0E0D0E00E947E
S1130CA03B065C9A0E943B0609B15C980E943B0695
S1130CB05C9A0E943B065C98249607FF10C0AE0124
S1130CC060E070E080915B0190915C01A0915D0116
S1130CD0B0915E01481759076A077B0700F31AB9F8
S1130CE0DF91CF911F910F91089595B1282F217015
S1130CF030E0220F331F482F467068E0469FA00162
S1130D001124242B9D7C292B25B99BB188708295B5
S1130D10807F9F77892B8BB95C9A0E943B065C98F5
S1130D200E943B060895A0E0B0E0E9E9F6E00C94E7
S1130D30620FC82FD62EE42E8091C101811105C007
S1130D4081E08093C1010E9403070E94450614B10B
S1130D50D5B1FAB00BB12898DD2011F05A9A01C030
S1130D605A9894B1926394B9579A81E0E81629F09D
S1130D708C2F82958F700E9475068C2F8F700E9425
S1130D807506FAB80BB914B9D5B9CDB7DEB7E7E033
S1130D900C947E0F42E060E00E949306089542E0C6
S1130DA061E00E9493060895A1E0B0E0EAEDF6E068
S1130DB00C94630F8C01660F660F660FE12CF12C07
S1130DC08E2D860F806469830E94CA06F801EE0D99
S1130DD0FF1D84910E94CF068FEFE81AF80A6981FB
S1130DE0E8E0EE16F10461F72196E6E00C947F0F3B
S1130DF00E94D40608950E94CF06089541E060E061
S1130E000E949306089580E197E2A0E0B0E0809309
S1130E105B0190935C01A0935D01B0935E01529AD3
S1130E20209A549A8EE190E00E94360983E00E9451
S1130E30FE0686E090E00E94360983E00E94FE06EA
S1130E4082E090E00E94360983E00E94FE0682E080
S1130E5090E00E94360982E00E94FE0682E090E063
S1130E600E94360988E20E94CA0688E00E94CA06E7
S1130E7081E00E94CA0686E00E94CA068CE00E94B5
S1130E80CA06089581E00E94CA068091610190918A
S1130E906201892BF9F060E0A0E2262F30E0709126
S1130EA00C0180910D0190E00197789FA001799F3A
S1130EB0500D1124241735074CF4E0916101F09191
S1130EC06201E20FF31FA0836F5FE7CF10925F010F
S1130ED01092600108950E9442070895CF93DF9312
S1130EE0EC018991882319F00E94CF06FACFDF9193
S1130EF0CF9108950E946E070895AAE0B0E0E3E858
S1130F00F7E00C94610F1AE05AE0C52ED12CE12CC5
S1130F10F12C062FA70196010E94F40ECA01B90113
S1130F201150E1E0F0E0EC0FFD1FE10FF11D005D59
S1130F302AE0629F0019112400836115710581055F
S1130F40910539F71A3058F4E1E0F0E0EC0FFD1F99
S1130F50E10FF11D80810E94CF061F5FF3CF2A9617
S1130F60E8E00C947D0FCF92DF92EF92FF926B0139
S1130F707C0197FF0BC0F094E094D094C094C11C02
S1130F80D11CE11CF11C8DE20E94CF06C701B60101
S1130F900E947D07FF90EF90DF90CF9008950E940C
S1130FA0B3070895A5E0B0E0E8EDF7E00C94660F10
S1130FB0182F80E8898380EC8A8384E98B8384ED0D
S1130FC08C83FE01E60FF11D8181810F6D830E94E8
S1130FD0CA0610935F016D81609360012596E3E07A
S1130FE00C94820F0E94D2070895883058F491E03F
S1130FF001C0990F8A95EAF7892FAAE2B0E0EBE2E3
S1131000F0E021C08E3060F498EF980F81E001C0C9
S1131010880F9A95EAF7A4E2B0E0E5E2F0E013C0A5
S1131020853160F492EF980F81E001C0880F9A95A2
S1131030EAF7A7E2B0E0E8E2F0E005C080E0A0E073
S1131040B0E0E0E0F0E06F3F19F49081982709C028
S1131050662319F09081982B04C02081982F9095D5
S1131060922390839C91982B9C93089583EF809373
S1131070B00084BD82E08093B10085BD1092B400BD
S11310801092B30018BC17BC60E086E00E94F5071C
S113109060E085E00E94F50760E08BE00E94F507C0
S11310A060E083E00E94F50708958091C2018111F8
S11310B005C081E08093C2010E9436080895CF9351
S11310C0DF93EC010E945508D7FF05C0D195C19567
S11310D0D10981E001C080E0CF3FD10519F014F0BF
S11310E0CFEFD0E0882319F018BCC7BD02C0C8BD3B
S11310F017BCDF91CF910895CF93DF93EC010E9449
S11311005508D7FF05C0D195C195D10981E001C02B
S113111080E0CF3FD10519F014F0CFEFD0E0882361
S113112029F01092B400C093B30004C0C093B4007B
S11311301092B300DF91CF910895CF93DF93EB0129
S11311400E945F08CE010E947C08DF91CF91089530
S11311500E949D08089584B18D7C84B985B1826311
S113116085B985E090E06F9364E06A95F1F76F913B
S11311700197C9F708958091C301811105C081E0E9
S11311808093C3010E94AB080895CF93C82F0E9497
S1131190BB0883B18C23E9F38AE090E00E9436090E
S11311A083B18C23B1F383B18C23CF9108950E9432
S11311B0C5080895A1E0B0E0E0EEF8E00C94670FF4
S11311C089830E94BB0893B19095898189232196D4
S11311D0E2E00C94830F0E94DA0808952F928F9313
S11311E09F932FB680916A0190916B010196809331
S11311F06A0190936B0190E080916C01891F809348
S11312006C01909164019C5F9093640180916301EF
S113121080519742C0F09093640180936301809160
S11312206501909166010196809365019093660132
S113123090E080916701891F809367018091680124
S1131240891F809368012FBE9F918F912F901895CD
S113125028EE33E0019748F0F9016F9364E06A9552
S1131260F1F76F913197C9F7F5CF08950E942809D6
S11312700895E0E7F0E080818E7F8083A0EBB0E00A
S11312808C9183608C93A1EBB0E08C91807F8C93E4
S11312908C9182608C93B89A8081816080837894E9
S11312A008958091C401811105C081E08093C40137
S11312B00E94390908950E945109E0E7F0E0808115
S11312C08E7F8083609165017091660180916701D2
S11312D09091680120812160208308950E945B0918
S11312E008950E945109E0E7F0E080818E7F8083B9
S11312F010926501109266011092670110926801C4
S1131300109264011092630180818160808308954A
S1131310682F8DE691E00E94700D0895462F20E01D
S1131320BC018DE691E00E94410E08950F93CF9386
S1131330DF9300D000D01F92CDB7DEB79C0185E0CB
S1131340E6E3F1E0DE01119601900D928A95E1F752
S1131350662311F00FEF01C003E145E0BE016F5FAA
S11313607F4F8DE691E00E94680A8DE691E00E942D
S11313703F0A0E9471090F900F900F900F900F90E9
S1131380DF91CF910F91089560E00E94960908952E
S11313908DE691E00E94B60E08956F9364E06A951D
S11313A0F1F76F910197C9F70895FC01118210823A
S11313B013821282158214821682683068F489E2DC
S11313C090E0918380838BE290E0938382838AE22E
S11313D090E0958384831FC06E3070F483E290E0C4
S11313E09183808385E290E09383828384E290E01A
S11313F09583848368500FC0653198F486E290E049
S11314009183808388E290E09383828387E290E0F3
S1131410958384836E5081E001C0880F6A95EAF752
S113142086830895A7E0B0E0E8E1FAE00C94650F44
S11314308C01FC01118210821382128215821482A3
S113144017821682613118F080E1808702C0FC01A6
S11314506087F801208B642FCE0101960E94D50984
S11314608F81F80181878B819C81938782878D810D
S11314709E81958784872796E4E00C94810FFC0174
S1131480A485B585109779F08C919185892B8C93DF
S1131490A285B3859C918185809589238C9388EC62
S11314A090E00E94CD090895FC01A485B5851097AC
S11314B071F08C919185892B8C93A285B3858C9145
S11314C09185892B8C9388EC90E00E94CD09089536
S11314D0A7E0B0E0EEE6FAE00C945A0F7C014B0171
S11314E0642F3901402F20E00E94120A87010F5B0C
S11314F01F4FF80110826701F2E4CF0ED11CF601F0
S113150010825701F3E4AF0EB11CF5011082F7010C
S113151077866686512CF7018085581650F5652C20
S1131520712CF401E60DF71D6081CE0101960E9435
S1131530D5092F81F701E60DF71D218B89819A8149
S1131540F301EE0FFF1FEE0DFF1D92A381A3833263
S1131550910511F4F80108C08632910511F4F601E1
S113156003C0899721F4F5018081822B80835394F1
S1131570D2CF2796EFE00C94760FA0E0B0E0E3EC36
S1131580FAE00C945C0FEC015B016C0181E4C80E81
S1131590D11CF60180807E01F2E4EF0EF11CF7010C
S11315A070808E010D5B1F4FF801908080E098855C
S11315B0891748F4F501E80FF11DE80FF11D1182B8
S11315C010828F5FF4CF84B1F6019081892B84B9A6
S11315D087B1F7019081892B87B98AB1F80190818D
S11315E0892B8AB985B1F6019081892B85B988B197
S11315F0F7019081892B88B98BB1F8019081892BEF
S11316008BB98AE090E00E94CD0994B1F601808103
S11316108095892384B997B1F701808180958923C6
S113162087B99AB1F8018081809589238AB995B1E7
S1131630F60180818095892385B998B1F70180816D
S11316408095892388B99BB1F8018081809589238D
S11316508BB9E090B000D090B1008091B00083606D
S11316608093B00082E08093B1004091B20080E0AA
S113167090E02E853F858217930720F5C090B20035
S11316802C2D241B820F911D03B1081132C0F6B01A
S1131690F7102FC029B129112CC010C0212F30E020
S11316A0A901440F551FF501E40FF51F60817181F5
S11316B0672B21F11F5F2885121780F37F2C802E62
S11316C04C2DD7CFE092B000D092B10020E08885B5
S11316D0281730F5F501E20FF11DE20FF11D8081AD
S11316E09181892B21F48E859F85918380832F5F3F
S11316F0EECF03B1F6B099B010E0DDCFDE01A40F58
S1131700B51F91960D90BC91A02D4C91DE01A20FB6
S1131710B31F51962C91422369F691838083CACFDB
S1131720CDB7DEB7EDE00C94780FEF92FF920F93F4
S11317301F93CF93DF93FC019B01F0907C000091F9
S11317407A0047B118B180917A0086FDFCCF80E021
S11317509085891748F4D901A80FB11DA80FB11DB0
S11317601D921C928F5FF4CF97B182A1809589233B
S113177087B998B182A18095892388B987E8809335
S11317807A00E12C81A1E81610F0E12C29C050E088
S11317908085581718F5A52FB0E0EF01CA0FDB1F9D
S11317A08989806480937C0080917A00806480932E
S11317B07A0080917A0086FDFCCF60917800709168
S11317C07900AA0FBB1FA20FB31F8D919C91119793
S11317D0860F971F8D939C935F5FDACFE394D2CFEC
S11317E08085E816A0F4E901CE0DD11DCE0DD11DE2
S11317F061A170E0CB0195958795A881B9818A0F85
S11318009B1F0E94E00E79836883E394E9CFF092F2
S11318107C0000937A0018B947B9CDB7DEB7E6E08B
S11318200C947F0FA0E2B0E0E8E1FCE00C94620FBE
S11318308C017B01D42E8FEF840F823018F4C80101
S11318400E94540AD80150968C91B701811110C09E
S1131850C8010E94BD0AC8010E943F0AB2E0DB121F
S11318603AC0BE016F5F7F4FC8010E94BD0A0FC01E
S1131870C8010E94950BC8010E943F0AE2E0DE12F3
S11318802AC0BE016F5F7F4FC8010E94950B40E0E4
S1131890F80180854817F8F4842F90E0880F991F89
S11318A0F701E80FF91F21E030E02C0F3D1F820FF4
S11318B0931FD8011E962D913C911F97DC018D91A9
S11318C09C91281B390B80819181820F931F9183F6
S11318D080834F5FDDCFA096E7E00C947E0F2F92BC
S11318E03F925F926F927F928F929F92AF92BF923C
S11318F0CF92DF92EF92FF920F931F93CF93DF93D8
S1131900CDB7DEB7C056D1090FB6F894DEBF0FBE0F
S1131910CDBF8C014B015A01522EDA018D919C915D
S1131920892B31F0F40180819181892BF1F424C059
S1131930D80118968C9190E0880F991F0E94940FFB
S1131940F50191838083009709F4B1C0FC0120E084
S113195030E0D80118968C9190E02817390714F7D5
S1131960119211922F5F3F4FF4CFE12CF12C6E01B5
S1131970B1E2CB0ED11C21C0F801808590E0880F24
S1131980991F0E94940FD4018D939C93009709F49E
S11319908EC0FC0120E030E0D80118968C9190E0D4
S11319A02817390714F7D8011E968D919C911F971B
S11319B0819391932F5F3F4FEFCF452DBE016F5B16
S11319C07F4FC8010E94120CF8016084712CFE0143
S11319D0EF5BFF4FC6019E012F5F3F4F190120E0CF
S11319E030E0261537054CF5E114F10489F0DC01EB
S11319F06D917C91408151816417750748F0D10144
S1131A006D917C91408151814617570748F00DC074
S1131A1040815181DC014D935C93E114F10479F729
S1131A2040815181D1014D935C932F5F3F4FB2E0D0
S1131A302B0E311C32960296D4CFEFEFEE1AFE0A2B
S1131A40FAE0EF16F10409F0B8CF9E012F5F3F4F83
S1131A507901360180E090E0F801208530E08217BA
S1131A6093072CF5D7012D913D917D01B3016C199C
S1131A707D09D501ED91FC91E60FF71F408151815D
S1131A804217530710F431832083F30121913191DC
S1131A903F01D401ED91FC91E60FF71F4081518184
S1131AA02417350710F4318320830196D5CFC05A0B
S1131AB0DF4F0FB6F894DEBF0FBECDBFDF91CF91DD
S1131AC01F910F91FF90EF90DF90CF90BF90AF9058
S1131AD09F908F907F906F905F903F902F9008958C
S1131AE01F93CF93DF93EC01162F8FEF860F823075
S1131AF018F0662359F014C021E0AE014E5F5F4F29
S1131B00BE01CE010E946F0C123051F4AE014A5F47
S1131B105F4FBE016C5F7F4F20E0CE010E946F0CCF
S1131B20DF91CF911F910895A0E0B0E0EAE9FDE0D4
S1131B300C94600FEC018B01B42E842F8D7F51F433
S1131B408C819D81892B09F497C08E819F81892B7B
S1131B5009F492C08FEF8B0D823050F48881998103
S1131B60892B09F489C08A819B81892B09F484C05B
S1131B704B2DB801CE010E94120C780100E010E058
S1131B80C12CD12C888590E0C816D9060CF074C0FD
S1131B9081E0B8120AC0EA81FB81E00FF11F0190D5
S1131BA0F081E02DA881B9810DC08C819D812E81A9
S1131BB03F81B1100CC0F901E00FF11F0190F081D9
S1131BC0E02DDC01A00FB11F8D919C9128C0FC0178
S1131BD0E00FF11F40815181E881F981E00FF11F8D
S1131BE080819181EE85FF854817590710F4CF0154
S1131BF004C08E0F9F1F841B950BD901A00FB11F2A
S1131C002D913C91AA81BB81A00FB11F4D915C9194
S1131C102417350720F0E40FF51FE21BF30BE81B34
S1131C20F90BA9F0D7012D913C9140E050E0281B1D
S1131C30390B41095109A8EEB3E00E94440F9F01FA
S1131C4040E050E00E94160F37FD0AC002C020E0B9
S1131C5030E0293EB3E03B072CF028EE33E002C02D
S1131C6020E030E0F701219331937F01FFEFCF1A99
S1131C70DF0A0E5F1F4F86CFCDB7DEB7E9E00C94C5
S1131C807C0FA0E0B0E0E7E4FEE00C94570FEC0119
S1131C908B01822E0E94940D2884E801412C512C42
S1131CA0320100E010E0C12CD12C7601312C912CB2
S1131CB058EEA52E53E0B52E921421F1E991F99135
S1131CC0882021F0C5018E1B9F0BFC01E93CF10526
S1131CD024F4E333F10574F002C033243394DF01B8
S1131CE0A30192010E944F0FC60ED71EE81EF91ED3
S1131CF00E0F1F1F939498EE490E93E0591E611C1A
S1131D00711CDACF31101EC0492D50E041505109E9
S1131D1024EF31E0429FC001439F900D529F900DEC
S1131D2011242091B1013091B20128173907B4F080
S1131D3088EE93E0489F9001499F300D589F300DE5
S1131D4011240EC0980140E050E0C701B6010E9482
S1131D50F40E3093B2012093B10102C020E030E0D0
S1131D60C901CDB7DEB7E2E10C94730FCF93DF93D3
S1131D70EC018A819B81009711F00E942C108E81C6
S1131D809F81009711F00E942C10888199810097FF
S1131D9011F00E942C108C819D81009711F00E94FB
S1131DA02C10DF91CF910895991B79E004C0991FFD
S1131DB0961708F0961B881F7A95C9F780950895A1
S1131DC0AA1BBB1B51E107C0AA1FBB1FA617B7075D
S1131DD010F0A61BB70B881F991F5A95A9F7809579
S1131DE09095BC01CD010895A1E21A2EAA1BBB1B3C
S1131DF0FD010DC0AA1FBB1FEE1FFF1FA217B307D3
S1131E00E407F50720F0A21BB30BE40BF50B661FE8
S1131E10771F881F991F1A9469F7609570958095AC
S1131E2090959B01AC01BD01CF010895052E97FB50
S1131E301EF400940E942D0F57FD07D00E94F40E4B
S1131E4007FC03D04EF40C942D0F5095409530951B
S1131E5021953F4F4F4F5F4F089590958095709512
S1131E6061957F4F8F4F9F4F0895A29FB001B39FFD
S1131E70C001A39F700D811D1124911DB29F700D8F
S1131E80811D1124911D08950E94350FA59F900D69
S1131E90B49F900DA49F800D911D11240895B7FF48
S1131EA00C94440F0E94440F821B930B08952F92AD
S1131EB03F924F925F926F927F928F929F92AF92D6
S1131EC0BF92CF92DF92EF92FF920F931F93CF9323
S1131ED0DF93CDB7DEB7CA1BDB0B0FB6F894DEBFBA
S1131EE00FBECDBF09942A88398848885F846E84E0
S1131EF07D848C849B84AA84B984C884DF80EE802A
S1131F00FD800C811B81AA81B981CE0FD11D0FB632
S1131F10F894DEBF0FBECDBFED010895EE0FFF1F95
S1131F200590F491E02D0994CF93DF9382309105CD
S1131F3010F482E090E0E091D401F091D50120E02A
S1131F4030E0A0E0B0E0309739F14081518148178A
S1131F505907B8F04817590771F482819381109793
S1131F6029F013969C938E9312972CC09093D501CD
S1131F708093D40127C02115310531F0421753074E
S1131F8018F0A901DB0101C0EF019A01BD01DF01D5
S1131F900280F381E02DD7CF21153105F9F0281BFC
S1131FA0390B2430310580F48A819B8161157105D8
S1131FB021F0FB019383828304C09093D501809325
S1131FC0D401FE01329644C0FE01E20FF31F819357
S1131FD0919322503109398328833AC02091D20148
S1131FE03091D301232B41F4209110013091110140
S1131FF03093D3012093D20120910E0130910F012F
S11320002115310541F42DB73EB74091120150918D
S11320101301241B350BE091D201F091D301E21797
S1132020F307A0F42E1B3F0B2817390778F0AC01F7
S11320304E5F5F4F2417350748F04E0F5F1F5093D4
S1132040D3014093D2018193919302C0E0E0F0E088
S1132050CF01DF91CF910895CF93DF93009709F4D7
S113206087C0FC01329713821282C091D401D091AF
S1132070D501209781F420813181280F391F809167
S1132080D2019091D3018217930779F5F093D3018C
S1132090E093D2016DC0DE0120E030E0AE17BF074F
S11320A050F412964D915C9113979D014115510581
S11320B009F1DA01F3CFB383A28340815181840F04
S11320C0951F8A179B0771F48D919C911197840F2A
S11320D0951F02969183808312968D919C911397FC
S11320E0938382832115310529F4F093D501E0937C
S11320F0D4013EC0D9011396FC93EE9312974D91EF
S11321005D91A40FB51FEA17FB0779F480819181D3
S1132110840F951F0296D90111969C938E93828108
S1132120938113969C938E931297E0E0F0E08A815A
S11321309B81009719F0FE01EC01F9CFCE010296C4
S113214028813981820F931F2091D2013091D301CC
S11321502817390769F4309729F41092D5011092A1
S1132160D40102C013821282D093D301C093D2014E
S1132170DF91CF91089510E0C6E7D0E004C0FE01DE
S11321800E94900F2296C837D107C9F7F894FFCF61
S113219088130F00F4010400D007040108020000B2
S11321A0D6012000200000010203040506FF9C0163
S11321B0B501CF01EA0107022602470269028E0235
S11321C0B502DE020A030E0F1011126D560054659B
S11321D06B616E2043004C31366761004C313661CF
S10521E0670092
S9030000FC
