:100000000C943C000C9459000C9459000C94590029
:100010000C9459000C9459000C9459000C945900FC
:100020000C9459000C940F080C9459000C9459002E
:100030000C9459000C94E9040C9459000C94590048
:100040000C9459000C9459000C9459000C945900CC
:100050000C9459000C9459000C9459000C945900BC
:100060000C9459000C94590000000000000A001183
:100070000A0400000000D30811241FBECFEFD8E00F
:10008000DEBFCDBF11E0A0E0B1E0E6EAFFE102C0D3
:1000900005900D92A636B107D9F721E0A6E6B1E0AA
:1000A00001C01D92AE3DB207E1F70E9455010C94CC
:1000B000C60F0C94000060E088E690E00E941906EC
:1000C00061E089E690E00E94190662E08AE690E02D
:1000D0000E94190663E08BE690E00E94190664E036
:1000E0008CE690E00E94190665E08DE690E00E94A3
:1000F000190666E08EE690E00E9419060C948C06C4
:10010000CF92DF92EF92FF920F931F93CF93DF93E3
:10011000CDB7DEB72A970FB6F894DEBF0FBECDBFBE
:100120008C01D12C8AE0C82E95E6E92EF12CE4E171
:10013000F1E0DE0111968C2D01900D928A95E1F788
:10014000F801819191918F01B7010E94EB0D81E03F
:1001500090E08C0F9D1F680F791FFB0180810E942A
:100160001C06D394F5E0DF12E2CF2A960FB6F8947E
:10017000DEBF0FBECDBFDF91CF911F910F91FF90DA
:10018000EF90DF90CF9008950F931F93CF93DF935D
:10019000CDB7DEB72A970FB6F894DEBF0FBECDBF3E
:1001A00080ED97E00E94CF080E945B0082E00E94F1
:1001B0000C0881111DC00E942F028C010E948C0628
:1001C000B801882777FD8095982F0E94F0068BE371
:1001D00091E00E949B0661E080E00E9413078EE39D
:1001E00091E00E949B0684E690E00E945708DECFD3
:1001F0000CEE1FEF0832110528F068ED7FEF88E262
:1002000090E004C068E270E088ED9FEF0E94C907AB
:1002100081E00E94930884E190E00E9457080F5FFC
:100220001F4F0C33110531F760E070E080E090E083
:100230000E94C90782E00E940C0881111AC061E087
:10024000CE0101960E9499088C010E948C06B8018B
:1002500080E090E00E94F00661E080E00E941307D9
:10026000CE0101960E94800084E690E00E9457082B
:10027000E1CF82E00E94F8070E948C0686E491E0BC
:100280000E949B068FE491E00E9459050E94490557
:100290008111FCCF2A960FB6F894DEBF0FBECDBFFA
:1002A000DF91CF911F910F91089586E98093CD0141
:1002B00084E68093CE010E94C400FFCFECE7F0E01B
:1002C00080818F7D80830895811103C00E945E012B
:1002D000089580917C00806280937C0008958091D5
:1002E0007C0085FB882780F908950E946F01882390
:1002F00021F08091790090E00895809178009091AC
:10030000790008958032A0F497E890937A00909154
:100310007C00662311F0906C02C09F779064907E01
:10032000982B90937C0080917A00806480937A006F
:100330000895A0E0B0E0EFE9F1E00C946C0EEB0161
:1003400060E00E94820180917A0086FDFCCF8E01E0
:10035000C12CD12C760180917A00806480937A0040
:1003600080917A0086FDFCCF0E947501C80ED91ECF
:10037000E11CF11C015011090115110561F7CE01B5
:1003800096958795C034D10538F48C0D9D1DBE011E
:100390000E94EB0DCB010EC0A7019601280F391F5B
:1003A000411D511DCA01B9019E0140E050E00E946B
:1003B000FF0DC901CDB7DEB7E8E00C94880ECF92EF
:1003C000DF92EF92FF92A0910001B09101019C0198
:1003D0000E94400E6B017C010E946F01882359F03E
:1003E000C701B60161587F4F8F4F9F4F2FEF30E00D
:1003F00040E050E00AC0C701B60161507E4F8F4F08
:100400009F4F2FEF33E040E050E00E94FF0DC90105
:10041000FF90EF90DF90CF9008950E9499010E9485
:10042000DF0108951F93CF93DF930E946F01182F70
:100430000E945E016AE070E086E00E940D02EC011D
:10044000812F0E946401CE01880F991F8C0F9D1F80
:10045000019696958795DF91CF911F9108950E94FF
:100460001202089590916B01E0916601F09167018D
:10047000992311F0849101C080812FEB280F2A313C
:1004800010F4805E0895803249F49F012F5F3F4F42
:100490003093670120936601EF2B31F708951F9386
:1004A000CF93DF930E943202C0E0D0E01AE090EDDB
:1004B000980F9A30B8F49E01129FE001139FD00D5F
:1004C0001124C80FD11D87FDDA95E0978091660150
:1004D00090916701019690936701809366010E9455
:1004E0003202E5CFCE01DF91CF911F910895109296
:1004F0006F0083E28093800081E1809381001092FD
:10050000820080E197E290938900809388001092A6
:100510008B0010928A00229A789408958F929F926D
:10052000AF92BF92DF92EF92FF920F931F93CF9300
:10053000DF935C018B01D42E80916801811105C08D
:1005400081E0809368010E94770210920B01B7FE50
:1005500005C0E894B7F82AE0F22E02C0FF24F39415
:10056000E09081002E2D287FE22E48ECF49EC00101
:1005700011248A159B05E0F4E50151E1A51657E227
:10058000B50610F0C0E1D7E2BE017695679580E030
:1005900090E06058794687469F4F4E01A12CB12CC0
:1005A000A50194010E94FF0D59018E2D816024C088
:1005B000C8E2FC9EC02D1124D0E0CA15DB0508F46A
:1005C000E501BE01769567959E0140E050E08AE026
:1005D000F81207C080E090E0605E734481449F4F52
:1005E00006C080E090E060537D4E8C4E9F4F0E948D
:1005F000FF0D59018E2D8260882E2AE0F21207C06D
:10060000CE0105966AE070E00E94EB0DEB01C83E5A
:1006100043E0D40759F09801DE010E94400E28EE15
:1006200033E040E050E00E94210E890110926F00FB
:1006300080928100B0928900A09288002091880069
:10064000309189004D2D403108F04FE080E190E07D
:10065000841B9109A90102C0569547958A95E2F736
:1006600050938B0040938A0010936E0100936D01AC
:1006700086B38FEF86BB81E080936F00DF91CF91CF
:100680001F910F91FF90EF90DF90BF90AF909F90E0
:100690008F900895CF93DF93EB018F3F11F04111BD
:1006A00005C040E0BE0188EE93E043C0813130F0E8
:1006B00050EF580F503618F05FE501C050E0852F1D
:1006C0006CE00E94DF0D682F74EF76039001112417
:1006D000250F311D2C30310540F4F901EE0FFF1FBD
:1006E000E25EFE4F2081318102C020E030E08730A1
:1006F00081F0082E02C0220F331F0A94E2F78230E5
:1007000028F0C90105966AE070E00CC0C901905854
:100710000CC0C90136E0880F991F3A95E1F702969F
:1007200065E070E00E94EB0DCB01403108F04FE036
:10073000BE010E948E02DF91CF910895A2E0B0E049
:10074000E4EAF3E00C94640E90900A0180916A014F
:10075000882321F060916901611117C07724739497
:10076000B0ECAB2EBDE5BB2E1AE0612E04E0802E6E
:1007700080EDC82E87E0D82E94E0E92EF12C04EF0E
:1007800011E02FE0422E512C15C070E040E088EEC1
:1007900093E00E948E021092690117C18636D4F54B
:1007A000813609F4A9C07CF58C3309F460C08E331E
:1007B00081F493940E943202209166013091670186
:1007C0002F5F3F4F3093670120936601853631F7E5
:1007D00052C0813209F08BC080920A01D092090187
:1007E000C0920801F0920701E09206011093050102
:1007F00000930401509203014092020110926A0199
:10080000A4E09A2ED7CF8336A1F10CF478C010E083
:1008100082E077C08D36C1F194F4873691F174F19E
:100820008C3609F064C00E944F02BC01909307010E
:1008300080930601809108019091090151C082378F
:10084000C9F14CF48F3609F052C00E944F02982E25
:1008500080930A01AFCF843781F1863709F047C012
:100860000E944F029093030180930201A3CF9A94B8
:10087000A1CF10E020C010E084E043C010E085E08C
:1008800040C010E087E03DC00E9432028C3619F46F
:1008900010926A0104C070926A011092690120915D
:1008A0006601309167012F5F3F4F309367012093BE
:1008B000660180CF11E080E024C00E944F02BC019D
:1008C000C5010E94EB0D669EC001679E900D11242C
:1008D00090930901809308016091060170910701CE
:1008E0000E94EB0D709305016093040163CF109299
:1008F00067011092660169C010E089E002C010E053
:100900008BE0082F9CE0999E000D11240E9432027A
:10091000982F977F933261F420916601309167019F
:100920002F5F3F4F30936701209366010F5FEECF3B
:100930008D3271F420916601309167012F5F3F4F36
:10094000309367012093660101500E943202F0CF7C
:1009500060910401709105018153883050F4E0905A
:100960000801F09009010E944F02BC01C7010E94DA
:10097000EB0D7B01F694E79469837A830E9432023F
:1009800069817A818E3269F4209166013091670124
:100990002F5F3F4F30936701209366016E0D7F1DDF
:1009A000E9CF80916A01882339F09B01369527951C
:1009B00020936901621B710940910201112311F01A
:1009C0008FEF01C0802F0E944A032296E0E10C9431
:1009D000800E1F920F920FB60F9211242F933F9308
:1009E0004F935F936F937F938F939F93AF93BF9337
:1009F000EF93FF9380916D0190916E019C012150C6
:100A0000310930936E0120936D01892B11F51092FD
:100A10006F00789480918100887F8160809381004D
:100A200080E197E2909389008093880010928B0078
:100A300010928A0081E080930B0180916601909171
:100A40006701892B31F080916C01811102C00E94F5
:100A50009E03FF91EF91BF91AF919F918F917F91F5
:100A60006F915F914F913F912F910F900FBE0F901B
:100A70001F90189580910B01882349F081E0209107
:100A8000660130916701232B19F480E0089581E01D
:100A900008950E943A05089510926F00909367019F
:100AA0008093660110926B01109269010E949E036F
:100AB00008950E944C05089581E090E06F9364E0F2
:100AC0006A95F1F76F910197C9F708950F931F93F6
:100AD000CF93DF931AB157985A98289AC0E0D0E084
:100AE0000E945C055C9A0E945C0509B15C980E94BA
:100AF0005C055C9A0E945C055C98249607FF10C018
:100B0000AE0160E070E080916F0190917001A09162
:100B10007101B0917201481759076A077B0700F30A
:100B20001AB9DF91CF911F910F91089595B1282F98
:100B3000217030E0220F331F482F467068E0469F37
:100B4000A0011124242B9D7C292B25B99BB18870F1
:100B50008295807F9F77892B8BB95C9A0E945C0578
:100B60005C980E945C050895A0E0B0E0EAEBF5E037
:100B70000C946D0EC82FD62EE42E8091C9018111E0
:100B800005C081E08093C9010E9424060E94660589
:100B900014B1D5B1FAB00BB12898DD2011F05A9AF2
:100BA00001C05A9894B1926394B9579A81E0E816BB
:100BB00029F08C2F82958F700E9496058C2F8F7054
:100BC0000E949605FAB80BB914B9D5B9CDB7DEB7FE
:100BD000E7E00C94890E42E060E00E94B4050895BD
:100BE00042E061E00E94B4050895A1E0B0E0EBEFBF
:100BF000F5E00C946E0E8C01660F660F660FE12C0B
:100C0000F12C8E2D860F806469830E94EB05F8011C
:100C1000EE0DFF1D84910E94F0058FEFE81AF80A8F
:100C20006981E8E0EE16F10461F72196E6E00C94A4
:100C30008A0E0E94F50508950E94F005089541E08E
:100C400060E00E94B405089580E197E2A0E0B0E082
:100C500080936F0190937001A0937101B093720122
:100C6000529A209A549A8EE190E00E94570883E0AD
:100C70000E941F0686E090E00E94570883E00E94D1
:100C80001F0682E090E00E94570883E00E941F0642
:100C900082E090E00E94570882E00E941F0682E0F6
:100CA00090E00E94570888E20E94EB0588E00E94CD
:100CB000EB0581E00E94EB0586E00E94EB058CE0ED
:100CC0000E94EB05089581E00E94EB05809175017B
:100CD00090917601892BF9F060E0A0E2262F30E0B8
:100CE00070910C0180910D0190E00197789FA00117
:100CF000799F500D1124241735074CF4E0917501AC
:100D0000F0917601E20FF31FA0836F5FE7CF10929F
:100D100073011092740108950E9463060895CF93A1
:100D2000DF93EC018991882319F00E94F005FACF36
:100D3000DF91CF9108950E948F060895AAE0B0E058
:100D4000E4EAF6E00C946C0E1AE05AE0C52ED12CC1
:100D5000E12CF12C062FA70196010E94FF0DCA017C
:100D6000B9011150E1E0F0E0EC0FFD1FE10FF11DC2
:100D7000005D2AE0629F001911240083611571054E
:100D80008105910539F71A3058F4E1E0F0E0EC0FF5
:100D9000FD1FE10FF11D80810E94F0051F5FF3CF61
:100DA0002A96E8E00C94880ECF92DF92EF92FF92A1
:100DB0006B017C0197FF0BC0F094E094D094C09439
:100DC000C11CD11CE11CF11C8DE20E94F005C70181
:100DD000B6010E949E06FF90EF90DF90CF9008959D
:100DE0000E94D4060895A5E0B0E0E9EFF6E00C9487
:100DF000710E182F80E8898380EC8A8384E98B83C5
:100E000084ED8C83FE01E60FF11D8181810F6D83DE
:100E10000E94EB05109373016D8160937401259618
:100E2000E3E00C948D0E0E94F3060895883058F488
:100E300091E001C0990F8A95EAF7892FAAE2B0E004
:100E4000EBE2F0E021C08E3060F498EF980F81E083
:100E500001C0880F9A95EAF7A4E2B0E0E5E2F0E07D
:100E600013C0853160F492EF980F81E001C0880FC4
:100E70009A95EAF7A7E2B0E0E8E2F0E005C080E08A
:100E8000A0E0B0E0E0E0F0E06F3F19F49081982737
:100E900009C0662319F09081982B04C02081982FF7
:100EA0009095922390839C91982B9C93089583EF27
:100EB0008093B00084BD82E08093B10085BD109224
:100EC000B4001092B30018BC17BC60E086E00E942A
:100ED000160760E085E00E94160760E08BE00E9444
:100EE000160760E083E00E94160708958091CA010A
:100EF000811105C081E08093CA010E9457070895BF
:100F0000CF93DF93EC010E947607D7FF05C0D19500
:100F1000C195D10981E001C080E0CF3FD10519F032
:100F200014F0CFEFD0E0882319F018BCC7BD02C081
:100F3000C8BD17BCDF91CF910895CF93DF93EC012B
:100F40000E947607D7FF05C0D195C195D10981E0F0
:100F500001C080E0CF3FD10519F014F0CFEFD0E011
:100F6000882329F01092B400C093B30004C0C0934A
:100F7000B4001092B300DF91CF910895CF93DF9327
:100F8000EB010E948007CE010E949D07DF91CF9167
:100F900008950E94BE07089584B18D7C84B985B1FF
:100FA000826385B985E090E06F9364E06A95F1F71C
:100FB0006F910197C9F708958091CB01811105C008
:100FC00081E08093CB010E94CC070895CF93C82F76
:100FD0000E94DC0783B18C23E9F38AE090E00E9451
:100FE000570883B18C23B1F383B18C23CF9108953B
:100FF0000E94E6070895A1E0B0E0E1E0F8E00C947B
:10100000720E89830E94DC0793B1909589818923B0
:101010002196E2E00C948E0E0E94FB0708952F9219
:101020008F939F932FB680917E0190917F010196BF
:1010300080937E0190937F0190E080918001891FD1
:1010400080938001909178019C5F909378018091CA
:10105000770180519742C0F0909378018093770197
:101060008091790190917A01019680937901909312
:101070007A0190E080917B01891F80937B018091B0
:101080007C01891F80937C012FBE9F918F912F90AF
:10109000189528EE33E0019748F0F9016F9364E06A
:1010A0006A95F1F76F913197C9F7F5CF08950E94CE
:1010B00049080895E0E7F0E080818E7F8083A0EB0F
:1010C000B0E08C9183608C93A1EBB0E08C91807F39
:1010D0008C938C9182608C93B89A8081816080839C
:1010E000789408958091CC01811105C081E08093AE
:1010F000CC010E945A0808950E947208E0E7F0E0CF
:1011000080818E7F80831092790110927A011092F3
:101110007B0110927C0110927801109277018081FE
:10112000816080830895682F81E891E00E947B0CA4
:101130000895462F20E0BC0181E891E00E944C0D0B
:1011400008950F93CF93DF9300D000D01F92CDB7B7
:10115000DEB79C0185E0E6E3F1E0DE011196019047
:101160000D928A95E1F7662311F00FEF01C003E1BC
:1011700045E0BE016F5F7F4F81E891E00E947309F7
:1011800081E891E00E944A090E947C080F900F902C
:101190000F900F900F90DF91CF910F91089560E025
:1011A0000E94A108089581E891E00E94C10D089570
:1011B0006F9364E06A95F1F76F910197C9F708950D
:1011C000FC0111821082138212821582148216820F
:1011D000683068F489E290E0918380838BE290E04C
:1011E000938382838AE290E0958384831FC06E306C
:1011F00070F483E290E09183808385E290E09383B2
:10120000828384E290E09583848368500FC06531C7
:1012100098F486E290E09183808388E290E0938363
:10122000828387E290E0958384836E5081E001C0E1
:10123000880F6A95EAF786830895A7E0B0E0E3E2B5
:10124000F9E00C94700E8C01FC0111821082138263
:1012500012821582148217821682613118F080E1A1
:10126000808702C0FC016087F801208B642FCE01CB
:1012700001960E94E0088F81F80181878B819C8113
:10128000938782878D819E81958784872796E4E066
:101290000C948C0EFC01A485B585109779F08C9187
:1012A0009185892B8C93A285B3859C9181858095AE
:1012B00089238C9388EC90E00E94D8080895FC0163
:1012C000A485B585109771F08C919185892B8C93AD
:1012D000A285B3858C919185892B8C9388EC90E0C5
:1012E0000E94D8080895A7E0B0E0E9E7F9E00C947F
:1012F000650E7C014B01642F3901402F20E00E94D4
:101300001D0987010F5B1F4FF80110826701F2E48E
:10131000CF0ED11CF60110825701F3E4AF0EB11CC1
:10132000F5011082F70177866686512CF7018085DA
:10133000581650F5652C712CF401E60DF71D6081EF
:10134000CE0101960E94E0082F81F701E60DF71DFE
:10135000218B89819A81F301EE0FFF1FEE0DFF1D96
:1013600092A381A38332910511F4F80108C086325B
:10137000910511F4F60103C0899721F4F5018081EC
:10138000822B80835394D2CF2796EFE00C94810E6A
:10139000A0E0B0E0EEECF9E00C94670EEC015B012C
:1013A0006C0181E4C80ED11CF60180807E01F2E45C
:1013B000EF0EF11CF70170808E010D5B1F4FF801DD
:1013C000908080E09885891748F4F501E80FF11DB9
:1013D000E80FF11D118210828F5FF4CF84B1F60106
:1013E0009081892B84B987B1F7019081892B87B9C6
:1013F0008AB1F8019081892B8AB985B1F601908173
:10140000892B85B988B1F7019081892B88B98BB177
:10141000F8019081892B8BB98AE090E00E94D8086E
:1014200094B1F60180818095892384B997B1F70141
:1014300080818095892387B99AB1F8018081809550
:1014400089238AB995B1F60180818095892385B970
:1014500098B1F70180818095892388B99BB1F80103
:101460008081809589238BB9E090B000D090B10045
:101470008091B00083608093B00082E08093B100DF
:101480004091B20080E090E02E853F85821793075F
:1014900020F5C090B2002C2D241B820F911D03B1AA
:1014A000081132C0F6B0F7102FC029B129112CC095
:1014B00010C0212F30E0A901440F551FF501E40FA2
:1014C000F51F60817181672B21F11F5F288512173D
:1014D00080F37F2C802E4C2DD7CFE092B000D0929D
:1014E000B10020E08885281730F5F501E20FF11DE5
:1014F000E20FF11D80819181892B21F48E859F85DA
:10150000918380832F5FEECF03B1F6B099B010E0E6
:10151000DDCFDE01A40FB51F91960D90BC91A02DDB
:101520004C91DE01A20FB31F51962C91422369F614
:1015300091838083CACFCDB7DEB7EDE00C94830EE4
:10154000EF92FF920F931F93CF93DF93FC019B01C8
:10155000F0907C0000917A0047B118B180917A0038
:1015600086FDFCCF80E09085891748F4D901A80F4B
:10157000B11DA80FB11D1D921C928F5FF4CF97B1C2
:1015800082A18095892387B998B182A1809589230A
:1015900088B987E880937A00E12C81A1E81610F0E1
:1015A000E12C29C050E08085581718F5A52FB0E030
:1015B000EF01CA0FDB1F8989806480937C008091D2
:1015C0007A00806480937A0080917A0086FDFCCF57
:1015D0006091780070917900AA0FBB1FA20FB31F12
:1015E0008D919C911197860F971F8D939C935F5FB0
:1015F000DACFE394D2CF8085E816A0F4E901CE0DCE
:10160000D11DCE0DD11D61A170E0CB0195958795BF
:10161000A881B9818A0F9B1F0E94EB0D7983688393
:10162000E394E9CFF0927C0000937A0018B947B9AF
:10163000CDB7DEB7E6E00C948A0EA0E2B0E0E3E2BC
:10164000FBE00C946D0E8C017B01D42E8FEF840F88
:10165000823018F4C8010E945F09D80150968C911D
:10166000B701811110C0C8010E94C809C8010E94B9
:101670004A09B2E0DB123AC0BE016F5F7F4FC8017A
:101680000E94C8090FC0C8010E94A00AC8010E9498
:101690004A09E2E0DE122AC0BE016F5F7F4FC80137
:1016A0000E94A00A40E0F80180854817F8F4842FD2
:1016B00090E0880F991FF701E80FF91F21E030E053
:1016C0002C0F3D1F820F931FD8011E962D913C9128
:1016D0001F97DC018D919C91281B390B8081918192
:1016E000820F931F918380834F5FDDCFA096E7E049
:1016F0000C94890E2F923F925F926F927F928F92FD
:101700009F92AF92BF92CF92DF92EF92FF920F9390
:101710001F93CF93DF93CDB7DEB7C056D1090FB675
:10172000F894DEBF0FBECDBF8C014B015A01522E83
:10173000DA018D919C91892B31F0F40180819181A6
:10174000892BF1F424C0D80118968C9190E0880F71
:10175000991F0E949F0EF50191838083009709F4E1
:10176000B1C0FC0120E030E0D80118968C9190E0E7
:101770002817390714F7119211922F5F3F4FF4CFBA
:10178000E12CF12C6E01B1E2CB0ED11C21C0F8018D
:10179000808590E0880F991F0E949F0ED4018D9341
:1017A0009C93009709F48EC0FC0120E030E0D80142
:1017B00018968C9190E02817390714F7D8011E96D7
:1017C0008D919C911F97819391932F5F3F4FEFCF06
:1017D000452DBE016F5B7F4FC8010E941D0BF801B4
:1017E0006084712CFE01EF5BFF4FC6019E012F5FED
:1017F0003F4F190120E030E0261537054CF5E11484
:10180000F10489F0DC016D917C9140815181641774
:10181000750748F0D1016D917C9140815181461747
:10182000570748F00DC040815181DC014D935C9316
:10183000E114F10479F740815181D1014D935C931A
:101840002F5F3F4FB2E02B0E311C32960296D4CF61
:10185000EFEFEE1AFE0AFAE0EF16F10409F0B8CF46
:101860009E012F5F3F4F7901360180E090E0F80143
:10187000208530E0821793072CF5D7012D913D91FB
:101880007D01B3016C197D09D501ED91FC91E60F45
:10189000F71F408151814217530710F43183208391
:1018A000F301219131913F01D401ED91FC91E60FBB
:1018B000F71F408151812417350710F431832083AD
:1018C0000196D5CFC05ADF4F0FB6F894DEBF0FBEDA
:1018D000CDBFDF91CF911F910F91FF90EF90DF90DF
:1018E000CF90BF90AF909F908F907F906F905F90C0
:1018F0003F902F9008951F93CF93DF93EC01162F05
:101900008FEF860F823018F0662359F014C021E063
:10191000AE014E5F5F4FBE01CE010E947A0B1230C6
:1019200051F4AE014A5F5F4FBE016C5F7F4F20E014
:10193000CE010E947A0BDF91CF911F910895A0E014
:10194000B0E0E5EAFCE00C946B0EEC018B01B42EE8
:10195000842F8D7F51F48C819D81892B09F497C050
:101960008E819F81892B09F492C08FEF8B0D82307D
:1019700050F488819981892B09F489C08A819B81DF
:10198000892B09F484C04B2DB801CE010E941D0B98
:10199000780100E010E0C12CD12C888590E0C816B9
:1019A000D9060CF074C081E0B8120AC0EA81FB814C
:1019B000E00FF11F0190F081E02DA881B9810DC0E9
:1019C0008C819D812E813F81B1100CC0F901E00F07
:1019D000F11F0190F081E02DDC01A00FB11F8D916E
:1019E0009C9128C0FC01E00FF11F40815181E881EA
:1019F000F981E00FF11F80819181EE85FF85481705
:101A0000590710F4CF0104C08E0F9F1F841B950B44
:101A1000D901A00FB11F2D913C91AA81BB81A00FCC
:101A2000B11F4D915C912417350720F0E40FF51F8D
:101A3000E21BF30BE81BF90BA9F0D7012D913C91A8
:101A400040E050E0281B390B41095109A8EEB3E0F2
:101A50000E944F0E9F0140E050E00E94210E37FD92
:101A60000AC002C020E030E0293EB3E03B072CF082
:101A700028EE33E002C020E030E0F70121933193FB
:101A80007F01FFEFCF1ADF0A0E5F1F4F86CFCDB762
:101A9000DEB7E9E00C94870EA0E0B0E0E2E5FDE0FF
:101AA0000C94620EEC018B01822E0E949F0C288404
:101AB000E801412C512C320100E010E0C12CD12C66
:101AC0007601312C912C58EEA52E53E0B52E9214B0
:101AD00021F1E991F991882021F0C5018E1B9F0B1E
:101AE000FC01E93CF10524F4E333F10574F002C094
:101AF00033243394DF01A30192010E945A0EC60ED3
:101B0000D71EE81EF91E0E0F1F1F939498EE490E64
:101B100093E0591E611C711CDACF31101EC0492D93
:101B200050E04150510924EF31E0429FC001439FF2
:101B3000900D529F900D11242091C5013091C60146
:101B400028173907B4F088EE93E0489F9001499F29
:101B5000300D589F300D11240EC0980140E050E028
:101B6000C701B6010E94FF0D3093C6012093C50145
:101B700002C020E030E0C901CDB7DEB7E2E10C944D
:101B80007E0ECF93DF93EC018A819B81009711F049
:101B90000E94370F8E819F81009711F00E94370FAE
:101BA00088819981009711F00E94370F8C819D8167
:101BB000009711F00E94370FDF91CF910895991B84
:101BC00079E004C0991F961708F0961B881F7A9534
:101BD000C9F780950895AA1BBB1B51E107C0AA1F36
:101BE000BB1FA617B70710F0A61BB70B881F991FBE
:101BF0005A95A9F780959095BC01CD010895A1E271
:101C00001A2EAA1BBB1BFD010DC0AA1FBB1FEE1F76
:101C1000FF1FA217B307E407F50720F0A21BB30BC1
:101C2000E40BF50B661F771F881F991F1A9469F73D
:101C300060957095809590959B01AC01BD01CF0199
:101C40000895052E97FB1EF400940E94380E57FD50
:101C500007D00E94FF0D07FC03D04EF40C94380E01
:101C600050954095309521953F4F4F4F5F4F0895C8
:101C700090958095709561957F4F8F4F9F4F0895F8
:101C8000A29FB001B39FC001A39F700D811D1124BD
:101C9000911DB29F700D811D1124911D08950E9408
:101CA000400EA59F900DB49F900DA49F800D911D97
:101CB00011240895B7FF0C944F0E0E944F0E821B03
:101CC000930B08952F923F924F925F926F927F9263
:101CD0008F929F92AF92BF92CF92DF92EF92FF923C
:101CE0000F931F93CF93DF93CDB7DEB7CA1BDB0BE8
:101CF0000FB6F894DEBF0FBECDBF09942A8839888D
:101D000048885F846E847D848C849B84AA84B98493
:101D1000C884DF80EE80FD800C811B81AA81B9819F
:101D2000CE0FD11D0FB6F894DEBF0FBECDBFED01B3
:101D30000895EE0FFF1F0590F491E02D0994CF93C5
:101D4000DF938230910510F482E090E0E091DC01B5
:101D5000F091DD0120E030E0A0E0B0E0309739F113
:101D60004081518148175907B8F04817590771F455
:101D700082819381109729F013969C938E931297EA
:101D80002CC09093DD018093DC0127C02115310523
:101D900031F04217530718F0A901DB0101C0EF0130
:101DA0009A01BD01DF010280F381E02DD7CF21151B
:101DB0003105F9F0281B390B2430310580F48A8174
:101DC0009B816115710521F0FB019383828304C01F
:101DD0009093DD018093DC01FE01329644C0FE0148
:101DE000E20FF31F819391932250310939832883A5
:101DF0003AC02091DA013091DB01232B41F420918C
:101E00001001309111013093DB012093DA01209110
:101E10000E0130910F012115310541F42DB73EB768
:101E20004091120150911301241B350BE091DA010E
:101E3000F091DB01E217F307A0F42E1B3F0B2817EC
:101E4000390778F0AC014E5F5F4F2417350748F033
:101E50004E0F5F1F5093DB014093DA018193919302
:101E600002C0E0E0F0E0CF01DF91CF910895CF9381
:101E7000DF93009709F487C0FC0132971382128226
:101E8000C091DC01D091DD01209781F42081318166
:101E9000280F391F8091DA019091DB018217930797
:101EA00079F5F093DB01E093DA016DC0DE0120E00B
:101EB00030E0AE17BF0750F412964D915C91139726
:101EC0009D014115510509F1DA01F3CFB383A283D6
:101ED00040815181840F951F8A179B0771F48D9162
:101EE0009C911197840F951F02969183808312967F
:101EF0008D919C911397938382832115310529F449
:101F0000F093DD01E093DC013EC0D9011396FC9310
:101F1000EE9312974D915D91A40FB51FEA17FB0741
:101F200079F480819181840F951F0296D9011196D1
:101F30009C938E938281938113969C938E93129798
:101F4000E0E0F0E08A819B81009719F0FE01EC014E
:101F5000F9CFCE01029628813981820F931F2091FB
:101F6000DA013091DB012817390769F4309729F439
:101F70001092DD011092DC0102C013821282D09314
:101F8000DB01C093DA01DF91CF91089510E0C6E73D
:101F9000D0E004C0FE010E949B0E2296C837D107F4
:061FA000C9F7F894FFCF21
:101FA60088130F00F4010400D007040108020000A2
:101FB600DE012000200000010203040506FF9C014B
:101FC600B501CF01EA0107022602470269028E0225
:101FD600B502DE020A030E0F1011126D560054658B
:101FE6006B616E2041004C4554275320474F004CEF
:101FF6003862666172656734004C31366761004C41
:06200600313661670000A5
:00000001FF
