:100000000C943C000C9459000C9459000C94590029
:100010000C9459000C9459000C9459000C945900FC
:100020000C9459000C9426090C9459000C94590016
:100030000C9459000C9400060C9459000C9459002F
:100040000C9459000C9459000C9459000C945900CC
:100050000C9459000C9459000C9459000C945900BC
:100060000C9459000C94590000000000000A001183
:100070000A0400000000000A11241FBECFEFD8E0E0
:10008000DEBFCDBF11E0A0E0B1E0E0E0F2E202C0EF
:1000900005900D92AC35B107D9F721E0ACE5B1E0A0
:1000A00001C01D92A23EB207E1F70E946C020C94BF
:1000B000F3100C94000060E088E690E00E943007A6
:1000C00061E089E690E00E94300762E08AE690E015
:1000D0000E94300763E08BE690E00E94300764E006
:1000E0008CE690E00E94300765E08DE690E00E948B
:1000F000300766E08EE690E00E9430070C94A3077C
:10010000CF92DF92EF92FF920F931F93CF93DF93E3
:10011000CDB7DEB72A970FB6F894DEBF0FBECDBFBE
:100120008C01D12C8AE0C82E95E6E92EF12CE4E171
:10013000F1E0DE0111968C2D01900D928A95E1F788
:10014000F801819191918F01B7010E94180F81E010
:1001500090E08C0F9D1F680F791FFB0180810E942A
:100160003307D394F5E0DF12E2CF2A960FB6F89466
:10017000DEBF0FBECDBFDF91CF911F910F91FF90DA
:10018000EF90DF90CF9008954F925F926F927F92A1
:100190008F929F92AF92BF92CF92DF92EF92FF9297
:1001A0000F931F93CF93DF93CDB7DEB72A970FB688
:1001B000F894DEBF0FBECDBF80ED97E00E94FC0932
:1001C0000E945B000E94A6090091C1011091C2012A
:1001D0002091C3013091C401012B022B032B11F19B
:1001E0000091C5011091C6012091C7013091C8014D
:1001F0006B017C01C01AD10AE20AF30A0091C9011D
:100200001091CA012091CB013091CC010C0D1D1D24
:100210002E1D3F1D0093C9011093CA012093CB01ED
:100220003093CC016093C5017093C6018093C701E0
:100230009093C80182E00E94230981111DC00E9491
:1002400046038C010E94A307B801882777FD80959B
:10025000982F0E9407088BE391E00E94B20761E0AB
:1002600080E00E942A088EE391E00E94B20784E6B3
:1002700090E00E946E09DECF0CEE1FEF08321105F0
:1002800028F068ED7FEF88E290E004C068E270E05B
:1002900088ED9FEF0E94E00881E00E94C00984E1A0
:1002A00090E00E946E090F5F1F4F0C33110531F76C
:1002B00060E070E080E090E00E94E00882E00E9450
:1002C000230981111AC061E0CE0101960E94C6097E
:1002D0008C010E94A307B80180E090E00E9407080B
:1002E00061E080E00E942A08CE0101960E94800011
:1002F00084E690E00E946E09E1CF82E00E940F093F
:100300001092C9011092CA011092CB011092CC0137
:100310000E94A30781E08093C00181E090E0A0E00B
:10032000B0E04091C1015091C2016091C301709150
:10033000C401452B462B472B19F080E090E0DC01EF
:100340008093C1019093C201A093C301B093C401F3
:100350006091C9017091CA018091CB019091CC014B
:1003600020EC37E249E050E00E944E0F6AE0C62ED2
:10037000D12CE12CF12CCA01B901A70196010E94F0
:100380004E0F0E9407086091C9017091CA018091C7
:10039000CB019091CC0120E63AEE40E050E00E9483
:1003A0004E0FCA01B901A70196010E944E0F0E948B
:1003B00007088AE30E9433076091C9017091CA015E
:1003C0008091CB019091CC01E8EE4E2EE3E05E2EC1
:1003D000612C712CA30192010E944E0FFCE38F2E21
:1003E000912CA12CB12CCA01B901A50194010E9444
:1003F0004E0FA70196010E944E0FCA01B9010E943B
:1004000007086091C9017091CA018091CB01909158
:10041000CC01A30192010E944E0FCA01B901A501AE
:1004200094010E944E0FA70196010E944E0F4B01AE
:100430005C017727882799270E9407088EE20E948F
:1004400033076091C9017091CA018091CB019091ED
:10045000CC0124E630E040E050E00E944E0FCA019B
:10046000B901A70196010E944E0F0E9407086091F2
:10047000C9017091CA018091CB019091CC01A70173
:1004800096010E944E0FCA01B901A70196010E9470
:100490004E0F0E9407088092BF0186E491E00E94FF
:1004A00070060E9460068111FCCF2A960FB6F89460
:1004B000DEBF0FBECDBFDF91CF911F910F91FF9097
:1004C000EF90DF90CF90BF90AF909F908F907F90F4
:1004D0006F905F904F90089586E98093D10184E6F4
:1004E0008093D2010E94C400FFCFECE7F0E080814E
:1004F0008F7D80830895811103C00E947502089545
:1005000080917C00806280937C00089580917C00C3
:1005100085FB882780F908950E948602882321F0B0
:100520008091790090E00895809178009091790011
:1005300008958032A0F497E890937A0090917C001F
:10054000662311F0906C02C09F779064907E982B88
:1005500090937C0080917A00806480937A00089563
:10056000A0E0B0E0E6EBF2E00C94990FEB0160E064
:100570000E94990280917A0086FDFCCF8E01C12CE9
:10058000D12C760180917A00806480937A008091EA
:100590007A0086FDFCCF0E948C02C80ED91EE11C99
:1005A000F11C015011090115110561F7CE01969555
:1005B0008795C034D10538F48C0D9D1DBE010E9475
:1005C000180FCB010EC0A7019601280F391F411D3E
:1005D000511DCA01B9019E0140E050E00E942C0F5C
:1005E000C901CDB7DEB7E8E00C94B50FCF92DF922A
:1005F000EF92FF92A0910001B09101019C010E9435
:100600006D0F6B017C010E948602882359F0C7019F
:10061000B60161587F4F8F4F9F4F2FEF30E040E082
:1006200050E00AC0C701B60161507E4F8F4F9F4F07
:100630002FEF33E040E050E00E942C0FC901FF9003
:10064000EF90DF90CF9008950E94B0020E94F602D2
:1006500008951F93CF93DF930E948602182F0E9464
:1006600075026AE070E086E00E942403EC01812FAD
:100670000E947B02CE01880F991F8C0F9D1F01964F
:1006800096958795DF91CF911F9108950E94290338
:10069000089590916101E0915C01F0915D019923D1
:1006A00011F0849101C080812FEB280F2A3110F4C2
:1006B000805E0895803249F49F012F5F3F4F309351
:1006C0005D0120935C01EF2B31F708951F93CF93C9
:1006D000DF930E944903C0E0D0E01AE090ED980F4C
:1006E0009A30B8F49E01129FE001139FD00D11249F
:1006F000C80FD11D87FDDA95E09780915C0190913C
:100700005D01019690935D0180935C010E94490315
:10071000E5CFCE01DF91CF911F91089510926F0028
:1007200083E28093800081E18093810010928200B7
:1007300080E197E2909389008093880010928B006B
:1007400010928A00229A789408958F929F92AF9285
:10075000BF92DF92EF92FF920F931F93CF93DF939D
:100760005C018B01D42E80915E01811105C081E076
:1007700080935E010E948E0310920B01B7FE05C0AC
:10078000E894B7F82AE0F22E02C0FF24F394E09038
:1007900081002E2D287FE22E48ECF49EC00111240A
:1007A0008A159B05E0F4E50151E1A51657E2B5066F
:1007B00010F0C0E1D7E2BE017695679580E090E049
:1007C0006058794687469F4F4E01A12CB12CA50158
:1007D00094010E942C0F59018E2D816024C0C8E223
:1007E000FC9EC02D1124D0E0CA15DB0508F4E501FC
:1007F000BE01769567959E0140E050E08AE0F812D0
:1008000007C080E090E0605E734481449F4F06C063
:1008100080E090E060537D4E8C4E9F4F0E942C0FE5
:1008200059018E2D8260882E2AE0F21207C0CE0177
:1008300005966AE070E00E94180FEB01C83E43E0A5
:10084000D40759F09801DE010E946D0F28EE33E0C5
:1008500040E050E00E944E0F890110926F0080929C
:100860008100B0928900A092880020918800309188
:1008700089004D2D403108F04FE080E190E0841B6D
:100880009109A90102C0569547958A95E2F75093C0
:100890008B0040938A00109364010093630186B338
:1008A0008FEF86BB81E080936F00DF91CF911F9126
:1008B0000F91FF90EF90DF90BF90AF909F908F903F
:1008C0000895CF93DF93EB018F3F11F0411105C0E5
:1008D00040E0BE0188EE93E043C0813130F050EF3C
:1008E000580F503618F05FE501C050E0852F6CE0DE
:1008F0000E940C0F682F74EF760390011124250FCE
:10090000311D2C30310540F4F901EE0FFF1FE25E7E
:10091000FE4F2081318102C020E030E0873081F03D
:10092000082E02C0220F331F0A94E2F7823028F00B
:10093000C90105966AE070E00CC0C90190580CC06E
:10094000C90136E0880F991F3A95E1F7029665E0F4
:1009500070E00E94180FCB01403108F04FE0BE015B
:100960000E94A503DF91CF910895A2E0B0E0EBEBE8
:10097000F4E00C94910F90900A018091600188231B
:1009800021F060915F01611117C077247394B0EC7E
:10099000AB2EBDE5BB2E1AE0612E04E0802E80ED6B
:1009A000C82E87E0D82E94E0E92EF12C04EF11E058
:1009B0002FE0422E512C15C070E040E088EE93E00D
:1009C0000E94A50310925F0117C18636D4F58136C7
:1009D00009F4A9C07CF58C3309F460C08E3381F42E
:1009E00093940E94490320915C0130915D012F5F37
:1009F0003F4F30935D0120935C01853631F752C043
:100A0000813209F08BC080920A01D0920901C09214
:100A10000801F0920701E09206011093050100938E
:100A20000401509203014092020110926001A4E07F
:100A30009A2ED7CF8336A1F10CF478C010E082E073
:100A400077C08D36C1F194F4873691F174F18C360C
:100A500009F064C00E946603BC0190930701809373
:100A60000601809108019091090151C08237C9F1B6
:100A70004CF48F3609F052C00E946603982E809382
:100A80000A01AFCF843781F1863709F047C00E9451
:100A900066039093030180930201A3CF9A94A1CFA0
:100AA00010E020C010E084E043C010E085E040C0CA
:100AB00010E087E03DC00E9449038C3619F4109283
:100AC000600104C07092600110925F0120915C018E
:100AD00030915D012F5F3F4F30935D0120935C01AA
:100AE00080CF11E080E024C00E946603BC01C501F4
:100AF0000E94180F669EC001679E900D112490936E
:100B000009018093080160910601709107010E941C
:100B1000180F709305016093040163CF10925D017B
:100B200010925C0169C010E089E002C010E08BE027
:100B3000082F9CE0999E000D11240E944903982FD4
:100B4000977F933261F420915C0130915D012F5FBA
:100B50003F4F30935D0120935C010F5FEECF8D32EC
:100B600071F420915C0130915D012F5F3F4F309314
:100B70005D0120935C0101500E944903F0CF609118
:100B80000401709105018153883050F4E090080110
:100B9000F09009010E946603BC01C7010E94180F72
:100BA0007B01F694E79469837A830E944903698103
:100BB0007A818E3269F420915C0130915D012F5F62
:100BC0003F4F30935D0120935C016E0D7F1DE9CF97
:100BD00080916001882339F09B01369527952093F9
:100BE0005F01621B710940910201112311F08FEF27
:100BF00001C0802F0E9461042296E0E10C94AD0FA9
:100C00001F920F920FB60F9211242F933F934F9381
:100C10005F936F937F938F939F93AF93BF93EF9364
:100C2000FF9380916301909164019C0121503109EF
:100C30003093640120936301892B11F510926F00AA
:100C4000789480918100887F81608093810080E129
:100C500097E2909389008093880010928B00109205
:100C60008A0081E080930B0180915C0190915D018D
:100C7000892B31F080916201811102C00E94B5047C
:100C8000FF91EF91BF91AF919F918F917F916F9164
:100C90005F914F913F912F910F900FBE0F901F903A
:100CA000189580910B01882349F081E020915C0127
:100CB00030915D01232B19F480E0089581E00895BF
:100CC0000E945106089510926F0090935D018093E9
:100CD0005C011092610110925F010E94B5040895B9
:100CE0000E946306089581E090E06F9364E06A9546
:100CF000F1F76F910197C9F708950F931F93CF9361
:100D0000DF931AB157985A98289AC0E0D0E00E9411
:100D100073065C9A0E94730609B15C980E94730680
:100D20005C9A0E9473065C98249607FF10C0AE017F
:100D300060E070E08091650190916601A09167018B
:100D4000B0916801481759076A077B0700F31AB981
:100D5000DF91CF911F910F91089595B1282F2170A8
:100D600030E0220F331F482F467068E0469FA001F5
:100D70001124242B9D7C292B25B99BB18870829549
:100D8000807F9F77892B8BB95C9A0E9473065C9851
:100D90000E9473060895A0E0B0E0E1EDF6E00C9447
:100DA0009A0FC82FD62EE42E8091CD01811105C057
:100DB00081E08093CD010E943B070E947D0614B123
:100DC000D5B1FAB00BB12898DD2011F05A9A01C0C4
:100DD0005A9894B1926394B9579A81E0E81629F031
:100DE0008C2F82958F700E94AD068C2F8F700E9481
:100DF000AD06FAB80BB914B9D5B9CDB7DEB7E7E08F
:100E00000C94B60F42E060E00E94CB06089542E0E9
:100E100061E00E94CB060895A1E0B0E0E2E1F7E0D6
:100E20000C949B0F8C01660F660F660FE12CF12C62
:100E30008E2D860F806469830E940207F801EE0DF3
:100E4000FF1D84910E9407078FEFE81AF80A698155
:100E5000E8E0EE16F10461F72196E6E00C94B70F96
:100E60000E940C0708950E940707089541E060E082
:100E70000E94CB06089580E197E2A0E0B0E0809365
:100E8000650190936601A0936701B0936801529A3F
:100E9000209A549A8EE190E00E946E0983E00E94AD
:100EA000360786E090E00E946E0983E00E943607D4
:100EB00082E090E00E946E0983E00E94360782E0A3
:100EC00090E00E946E0982E00E94360782E090E086
:100ED0000E946E0988E20E94020788E00E940207D1
:100EE00081E00E94020786E00E9402078CE00E94D7
:100EF0000207089581E00E94020780916B019091A2
:100F00006C01892BF9F060E0A0E2262F30E07091AF
:100F10000C0180910D0190E00197789FA001799FCD
:100F2000500D1124241735074CF4E0916B01F0911A
:100F30006C01E20FF31FA0836F5FE7CF109269018E
:100F400010926A0108950E947A070895CF93DF9363
:100F5000EC018991882319F00E940707FACFDF91ED
:100F6000CF9108950E94A6070895AAE0B0E0EBEBA8
:100F7000F7E00C94990F1AE05AE0C52ED12CE12C21
:100F8000F12C062FA70196010E942C0FCA01B9016E
:100F90001150E1E0F0E0EC0FFD1FE10FF11D005DED
:100FA0002AE0629F001911240083611571058105F3
:100FB000910539F71A3058F4E1E0F0E0EC0FFD1F2D
:100FC000E10FF11D80810E9407071F5FF3CF2A9672
:100FD000E8E00C94B50FCF92DF92EF92FF926B0195
:100FE0007C0197FF0BC0F094E094D094C094C11C96
:100FF000D11CE11CF11C8DE20E940707C701B6015C
:101000000E94B507FF90EF90DF90CF9008950E9467
:10101000EB070895A5E0B0E0E0E1F8E00C949E0F46
:10102000182F80E8898380EC8A8384E98B8384EDA0
:101030008C83FE01E60FF11D8181810F6D830E947B
:101040000207109369016D8160936A012596E3E0C0
:101050000C94BA0F0E940A080895883058F491E061
:1010600001C0990F8A95EAF7892FAAE2B0E0EBE276
:10107000F0E021C08E3060F498EF980F81E001C05D
:10108000880F9A95EAF7A4E2B0E0E5E2F0E013C039
:10109000853160F492EF980F81E001C0880F9A9536
:1010A000EAF7A7E2B0E0E8E2F0E005C080E0A0E007
:1010B000B0E0E0E0F0E06F3F19F49081982709C0BC
:1010C000662319F09081982B04C02081982F909569
:1010D000922390839C91982B9C93089583EF809307
:1010E000B00084BD82E08093B10085BD1092B40051
:1010F0001092B30018BC17BC60E086E00E942D0877
:1011000060E085E00E942D0860E08BE00E942D08E1
:1011100060E083E00E942D0808958091CE01811146
:1011200005C081E08093CE010E946E080895CF93A0
:10113000DF93EC010E948D08D7FF05C0D195C195C2
:10114000D10981E001C080E0CF3FD10519F014F052
:10115000CFEFD0E0882319F018BCC7BD02C0C8BDCE
:1011600017BCDF91CF910895CF93DF93EC010E94DC
:101170008D08D7FF05C0D195C195D10981E001C087
:1011800080E0CF3FD10519F014F0CFEFD0E08823F5
:1011900029F01092B400C093B30004C0C093B4000F
:1011A0001092B300DF91CF910895CF93DF93EB01BD
:1011B0000E949708CE010E94B408DF91CF91089554
:1011C0000E94D508089584B18D7C84B985B182636D
:1011D00085B985E090E06F9364E06A95F1F76F91CF
:1011E0000197C9F708958091CF01811105C081E071
:1011F0008093CF010E94E3080895CF93C82F0E94E7
:10120000F30883B18C23E9F38AE090E00E946E0931
:1012100083B18C23B1F383B18C23CF9108950E94C5
:10122000FD080895A1E0B0E0E8E1F9E00C949F0F1B
:1012300089830E94F30893B190958981892321962F
:10124000E2E00C94BB0F0E94120908952F928F9335
:101250009F932FB6809174019091750101968093B0
:1012600074019093750190E080917601891F8093BD
:10127000760190916E019C5F90936E0180916D015B
:1012800080519742C0F090936E0180936D018091E0
:101290006F0190917001019680936F01909370019E
:1012A00090E080917101891F80937101809172019A
:1012B000891F809372012FBE9F918F912F90189557
:1012C00028EE33E0019748F0F9016F9364E06A95E6
:1012D000F1F76F913197C9F7F5CF08950E94600932
:1012E0000895E0E7F0E080818E7F8083A0EBB0E09E
:1012F0008C9183608C93A1EBB0E08C91807F8C9378
:101300008C9182608C93B89A80818160808378947C
:1013100008958091D001811105C081E08093D001B2
:101320000E94710908950E948909E0E7F0E0808138
:101330008E7F808360916F01709170018091710147
:101340009091720120812160208308950E94930969
:1013500008950E948909E0E7F0E080818E7F808314
:1013600010926F011092700110927101109272012F
:1013700010926E0110926D018081816080830895CA
:10138000682F87E791E00E94A80D0895462F20E07E
:10139000BC0187E791E00E94790E08950F93CF93E7
:1013A000DF9300D000D01F92CDB7DEB79C0185E05F
:1013B000E6E3F1E0DE01119601900D928A95E1F7E6
:1013C000662311F00FEF01C003E145E0BE016F5F3E
:1013D0007F4F87E791E00E94A00A87E791E00E9493
:1013E000770A0E94A9090F900F900F900F900F900D
:1013F000DF91CF910F91089560E00E94CE0908958A
:1014000087E791E00E94EE0E08956F9364E06A957D
:10141000F1F76F910197C9F70895FC0111821082CD
:1014200013821282158214821682683068F489E26F
:1014300090E0918380838BE290E0938382838AE2C1
:1014400090E0958384831FC06E3070F483E290E057
:101450009183808385E290E09383828384E290E0AD
:101460009583848368500FC0653198F486E290E0DC
:101470009183808388E290E09383828387E290E087
:10148000958384836E5081E001C0880F6A95EAF7E6
:1014900086830895A7E0B0E0E0E5FAE00C949D0FA4
:1014A0008C01FC0111821082138212821582148237
:1014B00017821682613118F080E1808702C0FC013A
:1014C0006087F801208B642FCE0101960E940D0ADF
:1014D0008F81F80181878B819C81938782878D81A1
:1014E0009E81958784872796E4E00C94B90FFC01D0
:1014F000A485B585109779F08C919185892B8C9373
:10150000A285B3859C918185809589238C9388ECF5
:1015100090E00E94050A0895FC01A485B585109706
:1015200071F08C919185892B8C93A285B3858C91D8
:101530009185892B8C9388EC90E00E94050A089590
:10154000A7E0B0E0E6EAFAE00C94920F7C014B01D0
:10155000642F3901402F20E00E944A0A87010F5B67
:101560001F4FF80110826701F2E4CF0ED11CF60183
:1015700010825701F3E4AF0EB11CF5011082F701A0
:1015800077866686512CF7018085581650F5652CB4
:10159000712CF401E60DF71D6081CE0101960E94C9
:1015A0000D0A2F81F701E60DF71D218B89819A81A4
:1015B000F301EE0FFF1FEE0DFF1D92A381A38332F7
:1015C000910511F4F80108C08632910511F4F60175
:1015D00003C0899721F4F5018081822B8083539485
:1015E000D2CF2796EFE00C94AE0FA0E0B0E0EBEF87
:1015F000FAE00C94940FEC015B016C0181E4C80EDD
:10160000D11CF60180807E01F2E4EF0EF11CF7019F
:1016100070808E010D5B1F4FF801908080E09885EF
:10162000891748F4F501E80FF11DE80FF11D11824B
:1016300010828F5FF4CF84B1F6019081892B84B939
:1016400087B1F7019081892B87B98AB1F801908120
:10165000892B8AB985B1F6019081892B85B988B12A
:10166000F7019081892B88B98BB1F8019081892B82
:101670008BB98AE090E00E94050A94B1F60180815E
:101680008095892384B997B1F7018081809589235A
:1016900087B99AB1F8018081809589238AB995B17B
:1016A000F60180818095892385B998B1F701808101
:1016B0008095892388B99BB1F80180818095892321
:1016C0008BB9E090B000D090B1008091B000836001
:1016D0008093B00082E08093B1004091B20080E03E
:1016E00090E02E853F858217930720F5C090B200C9
:1016F0002C2D241B820F911D03B1081132C0F6B0AE
:10170000F7102FC029B129112CC010C0212F30E0B3
:10171000A901440F551FF501E40FF51F6081718188
:10172000672B21F11F5F2885121780F37F2C802EF5
:101730004C2DD7CFE092B000D092B10020E0888548
:10174000281730F5F501E20FF11DE20FF11D808140
:101750009181892B21F48E859F85918380832F5FD2
:10176000EECF03B1F6B099B010E0DDCFDE01A40FEB
:10177000B51F91960D90BC91A02D4C91DE01A20F4A
:10178000B31F51962C91422369F691838083CACF6F
:10179000CDB7DEB7EDE00C94B00FEF92FF920F9350
:1017A0001F93CF93DF93FC019B01F0907C0000918D
:1017B0007A0047B118B180917A0086FDFCCF80E0B5
:1017C0009085891748F4D901A80FB11DA80FB11D44
:1017D0001D921C928F5FF4CF97B182A180958923CF
:1017E00087B998B182A18095892388B987E88093C9
:1017F0007A00E12C81A1E81610F0E12C29C050E01C
:101800008085581718F5A52FB0E0EF01CA0FDB1F30
:101810008989806480937C0080917A0080648093C1
:101820007A0080917A0086FDFCCF609178007091FB
:101830007900AA0FBB1FA20FB31F8D919C91119726
:10184000860F971F8D939C935F5FDACFE394D2CF7F
:101850008085E816A0F4E901CE0DD11DCE0DD11D75
:1018600061A170E0CB0195958795A881B9818A0F18
:101870009B1F0E94180F79836883E394E9CFF0924D
:101880007C0000937A0018B947B9CDB7DEB7E6E01F
:101890000C94B70FA0E2B0E0E0E5FCE00C949A0FE6
:1018A0008C017B01D42E8FEF840F823018F4C80195
:1018B0000E948C0AD80150968C91B701811110C0FA
:1018C000C8010E94F50AC8010E94770AB2E0DB1243
:1018D0003AC0BE016F5F7F4FC8010E94F50A0FC07A
:1018E000C8010E94CD0BC8010E94770AE2E0DE1217
:1018F0002AC0BE016F5F7F4FC8010E94CD0B40E040
:10190000F80180854817F8F4842F90E0880F991F1C
:10191000F701E80FF91F21E030E02C0F3D1F820F87
:10192000931FD8011E962D913C911F97DC018D913C
:101930009C91281B390B80819181820F931F918389
:1019400080834F5FDDCFA096E7E00C94B60F2F9217
:101950003F925F926F927F928F929F92AF92BF92CF
:10196000CF92DF92EF92FF920F931F93CF93DF936B
:10197000CDB7DEB7C056D1090FB6F894DEBF0FBEA3
:10198000CDBF8C014B015A01522EDA018D919C91F1
:10199000892B31F0F40180819181892BF1F424C0ED
:1019A000D80118968C9190E0880F991F0E94CC0F57
:1019B000F50191838083009709F4B1C0FC0120E018
:1019C00030E0D80118968C9190E02817390714F769
:1019D000119211922F5F3F4FF4CFE12CF12C6E0149
:1019E000B1E2CB0ED11C21C0F801808590E0880FB8
:1019F000991F0E94CC0FD4018D939C93009709F4FA
:101A00008EC0FC0120E030E0D80118968C9190E067
:101A10002817390714F7D8011E968D919C911F97AE
:101A2000819391932F5F3F4FEFCF452DBE016F5BA9
:101A30007F4FC8010E944A0CF8016084712CFE019E
:101A4000EF5BFF4FC6019E012F5F3F4F190120E062
:101A500030E0261537054CF5E114F10489F0DC017E
:101A60006D917C91408151816417750748F0D101D7
:101A70006D917C91408151814617570748F00DC008
:101A800040815181DC014D935C93E114F10479F7BD
:101A900040815181D1014D935C932F5F3F4FB2E064
:101AA0002B0E311C32960296D4CFEFEFEE1AFE0ABF
:101AB000FAE0EF16F10409F0B8CF9E012F5F3F4F17
:101AC0007901360180E090E0F801208530E082174E
:101AD00093072CF5D7012D913D917D01B3016C1930
:101AE0007D09D501ED91FC91E60FF71F40815181F1
:101AF0004217530710F431832083F3012191319170
:101B00003F01D401ED91FC91E60FF71F4081518117
:101B10002417350710F4318320830196D5CFC05A9E
:101B2000DF4F0FB6F894DEBF0FBECDBFDF91CF9170
:101B30001F910F91FF90EF90DF90CF90BF90AF90EB
:101B40009F908F907F906F905F903F902F9008951F
:101B50001F93CF93DF93EC01162F8FEF860F823008
:101B600018F0662359F014C021E0AE014E5F5F4FBC
:101B7000BE01CE010E94A70C123051F4AE014A5FA3
:101B80005F4FBE016C5F7F4F20E0CE010E94A70C2B
:101B9000DF91CF911F910895A0E0B0E0E2EDFDE06C
:101BA0000C94980FEC018B01B42E842F8D7F51F48F
:101BB0008C819D81892B09F497C08E819F81892B0F
:101BC00009F492C08FEF8B0D823050F48881998197
:101BD000892B09F489C08A819B81892B09F484C0EF
:101BE0004B2DB801CE010E944A0C780100E010E0B4
:101BF000C12CD12C888590E0C816D9060CF074C091
:101C000081E0B8120AC0EA81FB81E00FF11F019068
:101C1000F081E02DA881B9810DC08C819D812E813C
:101C20003F81B1100CC0F901E00FF11F0190F0816C
:101C3000E02DDC01A00FB11F8D919C9128C0FC010B
:101C4000E00FF11F40815181E881F981E00FF11F20
:101C500080819181EE85FF854817590710F4CF01E7
:101C600004C08E0F9F1F841B950BD901A00FB11FBD
:101C70002D913C91AA81BB81A00FB11F4D915C9128
:101C80002417350720F0E40FF51FE21BF30BE81BC8
:101C9000F90BA9F0D7012D913C9140E050E0281BB1
:101CA000390B41095109A8EEB3E00E947C0F9F0156
:101CB00040E050E00E944E0F37FD0AC002C020E015
:101CC00030E0293EB3E03B072CF028EE33E002C0C1
:101CD00020E030E0F701219331937F01FFEFCF1A2D
:101CE000DF0A0E5F1F4F86CFCDB7DEB7E9E00C9459
:101CF000B40FA0E0B0E0EFE7FEE00C948F0FEC0132
:101D00008B01822E0E94CC0D2884E801412C512C9D
:101D1000320100E010E0C12CD12C7601312C912C45
:101D200058EEA52E53E0B52E921421F1E991F991C8
:101D3000882021F0C5018E1B9F0BFC01E93CF105B9
:101D400024F4E333F10574F002C033243394DF014B
:101D5000A30192010E94870FC60ED71EE81EF91E2E
:101D60000E0F1F1F939498EE490E93E0591E611CAD
:101D7000711CDACF31101EC0492D50E0415051097D
:101D800024EF31E0429FC001439F900D529F900D80
:101D900011242091BB013091BC0128173907B4F000
:101DA00088EE93E0489F9001499F300D589F300D79
:101DB00011240EC0980140E050E0C701B6010E9416
:101DC0002C0F3093BC012093BB0102C020E030E017
:101DD000C901CDB7DEB7E2E10C94AB0FCF93DF932F
:101DE000EC018A819B81009711F00E9464108E8122
:101DF0009F81009711F00E9464108881998100975B
:101E000011F00E9464108C819D81009711F00E9456
:101E10006410DF91CF910895991B79E004C0991F58
:101E2000961708F0961B881F7A95C9F78095089534
:101E3000AA1BBB1B51E107C0AA1FBB1FA617B707F0
:101E400010F0A61BB70B881F991F5A95A9F780950C
:101E50009095BC01CD010895A1E21A2EAA1BBB1BCF
:101E6000FD010DC0AA1FBB1FEE1FFF1FA217B30766
:101E7000E407F50720F0A21BB30BE40BF50B661F7C
:101E8000771F881F991F1A9469F760957095809540
:101E900090959B01AC01BD01CF010895052E97FBE4
:101EA0001EF400940E94650F57FD07D00E942C0F6E
:101EB00007FC03D04EF40C94650F50954095309577
:101EC00021953F4F4F4F5F4F0895909580957095A6
:101ED00061957F4F8F4F9F4F0895A29FB001B39F91
:101EE000C001A39F700D811D1124911DB29F700D23
:101EF000811D1124911D08950E946D0FA59F900DC5
:101F0000B49F900DA49F800D911D11240895B7FFDB
:101F10000C947C0F0E947C0F821B930B08952F92D0
:101F20003F924F925F926F927F928F929F92AF9269
:101F3000BF92CF92DF92EF92FF920F931F93CF93B6
:101F4000DF93CDB7DEB7CA1BDB0B0FB6F894DEBF4D
:101F50000FBECDBF09942A88398848885F846E8473
:101F60007D848C849B84AA84B984C884DF80EE80BD
:101F7000FD800C811B81AA81B981CE0FD11D0FB6C6
:101F8000F894DEBF0FBECDBFED010895EE0FFF1F29
:101F90000590F491E02D0994CF93DF938230910561
:101FA00010F482E090E0E091E001F091E10120E0A6
:101FB00030E0A0E0B0E0309739F14081518148171E
:101FC0005907B8F04817590771F482819381109727
:101FD00029F013969C938E9312972CC09093E10155
:101FE0008093E00127C02115310531F042175307D6
:101FF00018F0A901DB0101C0EF019A01BD01DF0169
:102000000280F381E02DD7CF21153105F9F0281B8F
:10201000390B2430310580F48A819B81611571056B
:1020200021F0FB019383828304C09093E1018093AC
:10203000E001FE01329644C0FE01E20FF31F8193DE
:10204000919322503109398328833AC02091DE01CF
:102050003091DF01232B41F42091100130911101C7
:102060003093DF012093DE0120910E0130910F01AA
:102070002115310541F42DB73EB740911201509121
:102080001301241B350BE091DE01F091DF01E21713
:10209000F307A0F42E1B3F0B2817390778F0AC018B
:1020A0004E5F5F4F2417350748F04E0F5F1F509368
:1020B000DF014093DE018193919302C0E0E0F0E004
:1020C000CF01DF91CF910895CF93DF93009709F46B
:1020D00087C0FC01329713821282C091E001D09137
:1020E000E101209781F420813181280F391F8091EF
:1020F000DE019091DF018217930779F5F093DF01FC
:10210000E093DE016DC0DE0120E030E0AE17BF07D6
:1021100050F412964D915C9113979D014115510514
:1021200009F1DA01F3CFB383A28340815181840F97
:10213000951F8A179B0771F48D919C911197840FBD
:10214000951F02969183808312968D919C9113978F
:10215000938382832115310529F4F093E101E09303
:10216000E0013EC0D9011396FC93EE9312974D9176
:102170005D91A40FB51FEA17FB0779F48081918167
:10218000840F951F0296D90111969C938E9382819C
:10219000938113969C938E931297E0E0F0E08A81EE
:1021A0009B81009719F0FE01EC01F9CFCE01029658
:1021B00028813981820F931F2091DE013091DF0148
:1021C0002817390769F4309729F41092E101109229
:1021D000E00102C013821282D093DF01C093DE01BE
:1021E000DF91CF91089510E0C6E7D0E004C0FE0172
:1021F0000E94C80F2296C837D107C9F7F894FFCFBD
:1022000088130F00F4010400D00704010802000045
:10221000E2012000200000010203040506FF9C01EA
:10222000B501CF01EA0107022602470269028E02C8
:10223000B502DE020A030E0F1011126D560054652E
:102240006B616E2041004C386266617265673400D4
:0C2250004C31366761004C31366167008C
:00000001FF
